:0200000048288E
:10000600043083120313FC003A30FD00FD0B09286F
:08001600FC0B092800000800A2
:10001E0083120313A8012408F1000130F0007108C7
:10002E0003191D28F00D7010FF3E17287008A70049
:10003E002308840070080005F10071080130031DCB
:10004E000030F0002608F006031945282508003C6C
:10005E000318352803200320A5032D282308840028
:10006E0027080005F10071080130031D0030F00073
:10007E002608F00603194528FF30A8002808F000CE
:02008E00080068
:1000900083160313861086168701AA308312870001
:1000A00020100630A3000530A4000130A500013067
:1000B000A6000F20700803195E282014201C6E284B
:1000C0000630A3000530A4000130A500A6010F20D2
:1000D000700803196E2802308606201051286F28F8
:02400E000A2F77
:00000001FF
